{
  "contractName": "PcMarket",
  "abi": [
    {
      "inputs": [],
      "stateMutability": "nonpayable",
      "type": "constructor"
    },
    {
      "anonymous": false,
      "inputs": [
        {
          "indexed": true,
          "internalType": "address",
          "name": "owner",
          "type": "address"
        },
        {
          "indexed": true,
          "internalType": "address",
          "name": "approved",
          "type": "address"
        },
        {
          "indexed": true,
          "internalType": "uint256",
          "name": "tokenId",
          "type": "uint256"
        }
      ],
      "name": "Approval",
      "type": "event"
    },
    {
      "anonymous": false,
      "inputs": [
        {
          "indexed": true,
          "internalType": "address",
          "name": "owner",
          "type": "address"
        },
        {
          "indexed": true,
          "internalType": "address",
          "name": "operator",
          "type": "address"
        },
        {
          "indexed": false,
          "internalType": "bool",
          "name": "approved",
          "type": "bool"
        }
      ],
      "name": "ApprovalForAll",
      "type": "event"
    },
    {
      "anonymous": false,
      "inputs": [
        {
          "indexed": true,
          "internalType": "address",
          "name": "previousOwner",
          "type": "address"
        },
        {
          "indexed": true,
          "internalType": "address",
          "name": "newOwner",
          "type": "address"
        }
      ],
      "name": "OwnershipTransferred",
      "type": "event"
    },
    {
      "anonymous": false,
      "inputs": [
        {
          "indexed": false,
          "internalType": "uint256",
          "name": "tokenId",
          "type": "uint256"
        },
        {
          "indexed": false,
          "internalType": "uint256",
          "name": "price",
          "type": "uint256"
        },
        {
          "indexed": false,
          "internalType": "address",
          "name": "creator",
          "type": "address"
        },
        {
          "indexed": false,
          "internalType": "bool",
          "name": "isListed",
          "type": "bool"
        }
      ],
      "name": "PcItemCreated",
      "type": "event"
    },
    {
      "anonymous": false,
      "inputs": [
        {
          "indexed": true,
          "internalType": "address",
          "name": "from",
          "type": "address"
        },
        {
          "indexed": true,
          "internalType": "address",
          "name": "to",
          "type": "address"
        },
        {
          "indexed": true,
          "internalType": "uint256",
          "name": "tokenId",
          "type": "uint256"
        }
      ],
      "name": "Transfer",
      "type": "event"
    },
    {
      "inputs": [
        {
          "internalType": "address",
          "name": "to",
          "type": "address"
        },
        {
          "internalType": "uint256",
          "name": "tokenId",
          "type": "uint256"
        }
      ],
      "name": "approve",
      "outputs": [],
      "stateMutability": "nonpayable",
      "type": "function"
    },
    {
      "inputs": [
        {
          "internalType": "address",
          "name": "owner",
          "type": "address"
        }
      ],
      "name": "balanceOf",
      "outputs": [
        {
          "internalType": "uint256",
          "name": "",
          "type": "uint256"
        }
      ],
      "stateMutability": "view",
      "type": "function",
      "constant": true
    },
    {
      "inputs": [
        {
          "internalType": "uint256",
          "name": "tokenId",
          "type": "uint256"
        }
      ],
      "name": "getApproved",
      "outputs": [
        {
          "internalType": "address",
          "name": "",
          "type": "address"
        }
      ],
      "stateMutability": "view",
      "type": "function",
      "constant": true
    },
    {
      "inputs": [
        {
          "internalType": "address",
          "name": "owner",
          "type": "address"
        },
        {
          "internalType": "address",
          "name": "operator",
          "type": "address"
        }
      ],
      "name": "isApprovedForAll",
      "outputs": [
        {
          "internalType": "bool",
          "name": "",
          "type": "bool"
        }
      ],
      "stateMutability": "view",
      "type": "function",
      "constant": true
    },
    {
      "inputs": [],
      "name": "listingPrice",
      "outputs": [
        {
          "internalType": "uint256",
          "name": "",
          "type": "uint256"
        }
      ],
      "stateMutability": "view",
      "type": "function",
      "constant": true
    },
    {
      "inputs": [],
      "name": "name",
      "outputs": [
        {
          "internalType": "string",
          "name": "",
          "type": "string"
        }
      ],
      "stateMutability": "view",
      "type": "function",
      "constant": true
    },
    {
      "inputs": [],
      "name": "owner",
      "outputs": [
        {
          "internalType": "address",
          "name": "",
          "type": "address"
        }
      ],
      "stateMutability": "view",
      "type": "function",
      "constant": true
    },
    {
      "inputs": [
        {
          "internalType": "uint256",
          "name": "tokenId",
          "type": "uint256"
        }
      ],
      "name": "ownerOf",
      "outputs": [
        {
          "internalType": "address",
          "name": "",
          "type": "address"
        }
      ],
      "stateMutability": "view",
      "type": "function",
      "constant": true
    },
    {
      "inputs": [],
      "name": "renounceOwnership",
      "outputs": [],
      "stateMutability": "nonpayable",
      "type": "function"
    },
    {
      "inputs": [
        {
          "internalType": "address",
          "name": "from",
          "type": "address"
        },
        {
          "internalType": "address",
          "name": "to",
          "type": "address"
        },
        {
          "internalType": "uint256",
          "name": "tokenId",
          "type": "uint256"
        }
      ],
      "name": "safeTransferFrom",
      "outputs": [],
      "stateMutability": "nonpayable",
      "type": "function"
    },
    {
      "inputs": [
        {
          "internalType": "address",
          "name": "from",
          "type": "address"
        },
        {
          "internalType": "address",
          "name": "to",
          "type": "address"
        },
        {
          "internalType": "uint256",
          "name": "tokenId",
          "type": "uint256"
        },
        {
          "internalType": "bytes",
          "name": "data",
          "type": "bytes"
        }
      ],
      "name": "safeTransferFrom",
      "outputs": [],
      "stateMutability": "nonpayable",
      "type": "function"
    },
    {
      "inputs": [
        {
          "internalType": "address",
          "name": "operator",
          "type": "address"
        },
        {
          "internalType": "bool",
          "name": "approved",
          "type": "bool"
        }
      ],
      "name": "setApprovalForAll",
      "outputs": [],
      "stateMutability": "nonpayable",
      "type": "function"
    },
    {
      "inputs": [
        {
          "internalType": "bytes4",
          "name": "interfaceId",
          "type": "bytes4"
        }
      ],
      "name": "supportsInterface",
      "outputs": [
        {
          "internalType": "bool",
          "name": "",
          "type": "bool"
        }
      ],
      "stateMutability": "view",
      "type": "function",
      "constant": true
    },
    {
      "inputs": [],
      "name": "symbol",
      "outputs": [
        {
          "internalType": "string",
          "name": "",
          "type": "string"
        }
      ],
      "stateMutability": "view",
      "type": "function",
      "constant": true
    },
    {
      "inputs": [
        {
          "internalType": "uint256",
          "name": "tokenId",
          "type": "uint256"
        }
      ],
      "name": "tokenURI",
      "outputs": [
        {
          "internalType": "string",
          "name": "",
          "type": "string"
        }
      ],
      "stateMutability": "view",
      "type": "function",
      "constant": true
    },
    {
      "inputs": [
        {
          "internalType": "address",
          "name": "from",
          "type": "address"
        },
        {
          "internalType": "address",
          "name": "to",
          "type": "address"
        },
        {
          "internalType": "uint256",
          "name": "tokenId",
          "type": "uint256"
        }
      ],
      "name": "transferFrom",
      "outputs": [],
      "stateMutability": "nonpayable",
      "type": "function"
    },
    {
      "inputs": [
        {
          "internalType": "address",
          "name": "newOwner",
          "type": "address"
        }
      ],
      "name": "transferOwnership",
      "outputs": [],
      "stateMutability": "nonpayable",
      "type": "function"
    },
    {
      "inputs": [
        {
          "internalType": "uint256",
          "name": "newPrice",
          "type": "uint256"
        }
      ],
      "name": "setListingPrice",
      "outputs": [],
      "stateMutability": "nonpayable",
      "type": "function"
    },
    {
      "inputs": [
        {
          "internalType": "uint256",
          "name": "tokenId",
          "type": "uint256"
        }
      ],
      "name": "getPcItem",
      "outputs": [
        {
          "components": [
            {
              "internalType": "uint256",
              "name": "tokenId",
              "type": "uint256"
            },
            {
              "internalType": "uint256",
              "name": "price",
              "type": "uint256"
            },
            {
              "internalType": "address",
              "name": "creator",
              "type": "address"
            },
            {
              "internalType": "bool",
              "name": "isListed",
              "type": "bool"
            }
          ],
          "internalType": "struct PcMarket.PcItem",
          "name": "",
          "type": "tuple"
        }
      ],
      "stateMutability": "view",
      "type": "function",
      "constant": true
    },
    {
      "inputs": [],
      "name": "listedItemsCount",
      "outputs": [
        {
          "internalType": "uint256",
          "name": "",
          "type": "uint256"
        }
      ],
      "stateMutability": "view",
      "type": "function",
      "constant": true
    },
    {
      "inputs": [
        {
          "internalType": "string",
          "name": "tokenURI",
          "type": "string"
        }
      ],
      "name": "tokenURIExists",
      "outputs": [
        {
          "internalType": "bool",
          "name": "",
          "type": "bool"
        }
      ],
      "stateMutability": "view",
      "type": "function",
      "constant": true
    },
    {
      "inputs": [],
      "name": "totalSupply",
      "outputs": [
        {
          "internalType": "uint256",
          "name": "",
          "type": "uint256"
        }
      ],
      "stateMutability": "view",
      "type": "function",
      "constant": true
    },
    {
      "inputs": [
        {
          "internalType": "uint256",
          "name": "index",
          "type": "uint256"
        }
      ],
      "name": "tokenByIndex",
      "outputs": [
        {
          "internalType": "uint256",
          "name": "",
          "type": "uint256"
        }
      ],
      "stateMutability": "view",
      "type": "function",
      "constant": true
    },
    {
      "inputs": [
        {
          "internalType": "address",
          "name": "owner",
          "type": "address"
        },
        {
          "internalType": "uint256",
          "name": "index",
          "type": "uint256"
        }
      ],
      "name": "tokenOfOwnerByIndex",
      "outputs": [
        {
          "internalType": "uint256",
          "name": "",
          "type": "uint256"
        }
      ],
      "stateMutability": "view",
      "type": "function",
      "constant": true
    },
    {
      "inputs": [],
      "name": "getAllPcsOnSale",
      "outputs": [
        {
          "components": [
            {
              "internalType": "uint256",
              "name": "tokenId",
              "type": "uint256"
            },
            {
              "internalType": "uint256",
              "name": "price",
              "type": "uint256"
            },
            {
              "internalType": "address",
              "name": "creator",
              "type": "address"
            },
            {
              "internalType": "bool",
              "name": "isListed",
              "type": "bool"
            }
          ],
          "internalType": "struct PcMarket.PcItem[]",
          "name": "",
          "type": "tuple[]"
        }
      ],
      "stateMutability": "view",
      "type": "function",
      "constant": true
    },
    {
      "inputs": [],
      "name": "getOwnedPcs",
      "outputs": [
        {
          "components": [
            {
              "internalType": "uint256",
              "name": "tokenId",
              "type": "uint256"
            },
            {
              "internalType": "uint256",
              "name": "price",
              "type": "uint256"
            },
            {
              "internalType": "address",
              "name": "creator",
              "type": "address"
            },
            {
              "internalType": "bool",
              "name": "isListed",
              "type": "bool"
            }
          ],
          "internalType": "struct PcMarket.PcItem[]",
          "name": "",
          "type": "tuple[]"
        }
      ],
      "stateMutability": "view",
      "type": "function",
      "constant": true
    },
    {
      "inputs": [
        {
          "internalType": "string",
          "name": "tokenURI",
          "type": "string"
        },
        {
          "internalType": "uint256",
          "name": "price",
          "type": "uint256"
        }
      ],
      "name": "mintToken",
      "outputs": [
        {
          "internalType": "uint256",
          "name": "",
          "type": "uint256"
        }
      ],
      "stateMutability": "payable",
      "type": "function",
      "payable": true
    },
    {
      "inputs": [
        {
          "internalType": "uint256",
          "name": "tokenId",
          "type": "uint256"
        }
      ],
      "name": "buyPc",
      "outputs": [],
      "stateMutability": "payable",
      "type": "function",
      "payable": true
    },
    {
      "inputs": [
        {
          "internalType": "uint256",
          "name": "tokenId",
          "type": "uint256"
        },
        {
          "internalType": "uint256",
          "name": "newPrice",
          "type": "uint256"
        }
      ],
      "name": "placePcOnSale",
      "outputs": [],
      "stateMutability": "payable",
      "type": "function",
      "payable": true
    }
  ],
  "bytecode": "0x60806040526658d15e176280006008553480156200001c57600080fd5b506040518060400160405280600881526020017f50634d61726b65740000000000000000000000000000000000000000000000008152506040518060400160405280600481526020017f434d50540000000000000000000000000000000000000000000000000000000081525081600090816200009a91906200041d565b508060019081620000ac91906200041d565b505050620000cf620000c3620000d560201b60201c565b620000dd60201b60201c565b62000504565b600033905090565b6000600760009054906101000a900473ffffffffffffffffffffffffffffffffffffffff16905081600760006101000a81548173ffffffffffffffffffffffffffffffffffffffff021916908373ffffffffffffffffffffffffffffffffffffffff1602179055508173ffffffffffffffffffffffffffffffffffffffff168173ffffffffffffffffffffffffffffffffffffffff167f8be0079c531659141344cd1fd0a4f28419497f9722a3daafe3b4186f6b6457e060405160405180910390a35050565b600081519050919050565b7f4e487b7100000000000000000000000000000000000000000000000000000000600052604160045260246000fd5b7f4e487b7100000000000000000000000000000000000000000000000000000000600052602260045260246000fd5b600060028204905060018216806200022557607f821691505b6020821081036200023b576200023a620001dd565b5b50919050565b60008190508160005260206000209050919050565b60006020601f8301049050919050565b600082821b905092915050565b600060088302620002a57fffffffffffffffffffffffffffffffffffffffffffffffffffffffffffffffff8262000266565b620002b1868362000266565b95508019841693508086168417925050509392505050565b6000819050919050565b6000819050919050565b6000620002fe620002f8620002f284620002c9565b620002d3565b620002c9565b9050919050565b6000819050919050565b6200031a83620002dd565b62000332620003298262000305565b84845462000273565b825550505050565b600090565b620003496200033a565b620003568184846200030f565b505050565b5b818110156200037e57620003726000826200033f565b6001810190506200035c565b5050565b601f821115620003cd57620003978162000241565b620003a28462000256565b81016020851015620003b2578190505b620003ca620003c18562000256565b8301826200035b565b50505b505050565b600082821c905092915050565b6000620003f260001984600802620003d2565b1980831691505092915050565b60006200040d8383620003df565b9150826002028217905092915050565b6200042882620001a3565b67ffffffffffffffff811115620004445762000443620001ae565b5b6200045082546200020c565b6200045d82828562000382565b600060209050601f83116001811462000495576000841562000480578287015190505b6200048c8582620003ff565b865550620004fc565b601f198416620004a58662000241565b60005b82811015620004cf57848901518255600182019150602085019450602081019050620004a8565b86831015620004ef5784890151620004eb601f891682620003df565b8355505b6001600288020188555050505b505050505050565b6149da80620005146000396000f3fe6080604052600436106101c25760003560e01c8063715018a6116100f7578063c046372c11610095578063e4c7f89611610064578063e4c7f89614610660578063e4e421891461067c578063e985e9c5146106b9578063f2fde38b146106f6576101c2565b8063c046372c1461059d578063c78f19f9146105cd578063c87b56dd146105f8578063ccb4918d14610635576101c2565b806395d89b41116100d157806395d89b41146104f55780639dc5f15614610520578063a22cb4651461054b578063b88d4fde14610574576101c2565b8063715018a61461048a5780637c726b69146104a15780638da5cb5b146104ca576101c2565b8063359e1703116101645780634f6ccce71161013e5780634f6ccce7146103a85780636352211e146103e5578063639d1d131461042257806370a082311461044d576101c2565b8063359e17031461032657806342842e0e1461034257806343d32ae71461036b576101c2565b8063095ea7b3116101a0578063095ea7b31461026c57806318160ddd1461029557806323b872dd146102c05780632f745c59146102e9576101c2565b806301ffc9a7146101c757806306fdde0314610204578063081812fc1461022f575b600080fd5b3480156101d357600080fd5b506101ee60048036038101906101e99190612ff4565b61071f565b6040516101fb919061303c565b60405180910390f35b34801561021057600080fd5b50610219610801565b60405161022691906130e7565b60405180910390f35b34801561023b57600080fd5b506102566004803603810190610251919061313f565b610893565b60405161026391906131ad565b60405180910390f35b34801561027857600080fd5b50610293600480360381019061028e91906131f4565b6108d9565b005b3480156102a157600080fd5b506102aa6109f0565b6040516102b79190613243565b60405180910390f35b3480156102cc57600080fd5b506102e760048036038101906102e2919061325e565b6109fd565b005b3480156102f557600080fd5b50610310600480360381019061030b91906131f4565b610a5d565b60405161031d9190613243565b60405180910390f35b610340600480360381019061033b919061313f565b610b02565b005b34801561034e57600080fd5b506103696004803603810190610364919061325e565b610c6a565b005b34801561037757600080fd5b50610392600480360381019061038d91906133e6565b610c8a565b60405161039f919061303c565b60405180910390f35b3480156103b457600080fd5b506103cf60048036038101906103ca919061313f565b610cc6565b6040516103dc9190613243565b60405180910390f35b3480156103f157600080fd5b5061040c6004803603810190610407919061313f565b610d37565b60405161041991906131ad565b60405180910390f35b34801561042e57600080fd5b50610437610dbd565b6040516104449190613560565b60405180910390f35b34801561045957600080fd5b50610474600480360381019061046f9190613582565b610f57565b6040516104819190613243565b60405180910390f35b34801561049657600080fd5b5061049f61100e565b005b3480156104ad57600080fd5b506104c860048036038101906104c3919061313f565b611022565b005b3480156104d657600080fd5b506104df611077565b6040516104ec91906131ad565b60405180910390f35b34801561050157600080fd5b5061050a6110a1565b60405161051791906130e7565b60405180910390f35b34801561052c57600080fd5b50610535611133565b6040516105429190613560565b60405180910390f35b34801561055757600080fd5b50610572600480360381019061056d91906135db565b611297565b005b34801561058057600080fd5b5061059b600480360381019061059691906136bc565b6112ad565b005b6105b760048036038101906105b2919061373f565b61130f565b6040516105c49190613243565b60405180910390f35b3480156105d957600080fd5b506105e261141f565b6040516105ef9190613243565b60405180910390f35b34801561060457600080fd5b5061061f600480360381019061061a919061313f565b611425565b60405161062c91906130e7565b60405180910390f35b34801561064157600080fd5b5061064a611537565b6040516106579190613243565b60405180910390f35b61067a6004803603810190610675919061379b565b611548565b005b34801561068857600080fd5b506106a3600480360381019061069e919061313f565b61168e565b6040516106b09190613830565b60405180910390f35b3480156106c557600080fd5b506106e060048036038101906106db919061384b565b611740565b6040516106ed919061303c565b60405180910390f35b34801561070257600080fd5b5061071d60048036038101906107189190613582565b6117d4565b005b60007f80ac58cd000000000000000000000000000000000000000000000000000000007bffffffffffffffffffffffffffffffffffffffffffffffffffffffff1916827bffffffffffffffffffffffffffffffffffffffffffffffffffffffff191614806107ea57507f5b5e139f000000000000000000000000000000000000000000000000000000007bffffffffffffffffffffffffffffffffffffffffffffffffffffffff1916827bffffffffffffffffffffffffffffffffffffffffffffffffffffffff1916145b806107fa57506107f982611857565b5b9050919050565b606060008054610810906138ba565b80601f016020809104026020016040519081016040528092919081815260200182805461083c906138ba565b80156108895780601f1061085e57610100808354040283529160200191610889565b820191906000526020600020905b81548152906001019060200180831161086c57829003601f168201915b5050505050905090565b600061089e826118c1565b6004600083815260200190815260200160002060009054906101000a900473ffffffffffffffffffffffffffffffffffffffff169050919050565b60006108e482610d37565b90508073ffffffffffffffffffffffffffffffffffffffff168373ffffffffffffffffffffffffffffffffffffffff1603610954576040517f08c379a000000000000000000000000000000000000000000000000000000000815260040161094b9061395d565b60405180910390fd5b8073ffffffffffffffffffffffffffffffffffffffff1661097361190c565b73ffffffffffffffffffffffffffffffffffffffff1614806109a257506109a18161099c61190c565b611740565b5b6109e1576040517f08c379a00000000000000000000000000000000000000000000000000000000081526004016109d8906139ef565b60405180910390fd5b6109eb8383611914565b505050565b6000600b80549050905090565b610a0e610a0861190c565b826119cd565b610a4d576040517f08c379a0000000000000000000000000000000000000000000000000000000008152600401610a4490613a81565b60405180910390fd5b610a58838383611a62565b505050565b6000610a6883610f57565b8210610aa9576040517f08c379a0000000000000000000000000000000000000000000000000000000008152600401610aa090613aed565b60405180910390fd5b600f60008473ffffffffffffffffffffffffffffffffffffffff1673ffffffffffffffffffffffffffffffffffffffff168152602001908152602001600020600083815260200190815260200160002054905092915050565b6000600d60008381526020019081526020016000206001015490506000610b2883610d37565b90508073ffffffffffffffffffffffffffffffffffffffff163373ffffffffffffffffffffffffffffffffffffffff1603610b98576040517f08c379a0000000000000000000000000000000000000000000000000000000008152600401610b8f90613b59565b60405180910390fd5b813414610bda576040517f08c379a0000000000000000000000000000000000000000000000000000000008152600401610bd190613bc5565b60405180910390fd5b6000600d600085815260200190815260200160002060020160146101000a81548160ff021916908315150217905550610c136009611d5b565b610c1e813385611a62565b8073ffffffffffffffffffffffffffffffffffffffff166108fc349081150290604051600060405180830381858888f19350505050158015610c64573d6000803e3d6000fd5b50505050565b610c85838383604051806020016040528060008152506112ad565b505050565b600060011515600c83604051610ca09190613c21565b908152602001604051809103902060009054906101000a900460ff161515149050919050565b6000610cd06109f0565b8210610d11576040517f08c379a0000000000000000000000000000000000000000000000000000000008152600401610d0890613aed565b60405180910390fd5b600b8281548110610d2557610d24613c38565b5b90600052602060002001549050919050565b600080610d4383611db7565b9050600073ffffffffffffffffffffffffffffffffffffffff168173ffffffffffffffffffffffffffffffffffffffff1603610db4576040517f08c379a0000000000000000000000000000000000000000000000000000000008152600401610dab90613cb3565b60405180910390fd5b80915050919050565b60606000610dc96109f0565b9050600080610dd86009611df4565b67ffffffffffffffff811115610df157610df06132bb565b5b604051908082528060200260200182016040528015610e2a57816020015b610e17612f48565b815260200190600190039081610e0f5790505b50905060005b83811015610f4d576000610e4382610cc6565b90506000600d60008381526020019081526020016000209050600115158160020160149054906101000a900460ff16151503610f38578060405180608001604052908160008201548152602001600182015481526020016002820160009054906101000a900473ffffffffffffffffffffffffffffffffffffffff1673ffffffffffffffffffffffffffffffffffffffff1673ffffffffffffffffffffffffffffffffffffffff1681526020016002820160149054906101000a900460ff161515151581525050848681518110610f1d57610f1c613c38565b5b6020026020010181905250600185610f359190613d02565b94505b50508080610f4590613d36565b915050610e30565b5080935050505090565b60008073ffffffffffffffffffffffffffffffffffffffff168273ffffffffffffffffffffffffffffffffffffffff1603610fc7576040517f08c379a0000000000000000000000000000000000000000000000000000000008152600401610fbe90613df0565b60405180910390fd5b600360008373ffffffffffffffffffffffffffffffffffffffff1673ffffffffffffffffffffffffffffffffffffffff168152602001908152602001600020549050919050565b611016611e02565b6110206000611e80565b565b61102a611e02565b6000811161106d576040517f08c379a000000000000000000000000000000000000000000000000000000000815260040161106490613e5c565b60405180910390fd5b8060088190555050565b6000600760009054906101000a900473ffffffffffffffffffffffffffffffffffffffff16905090565b6060600180546110b0906138ba565b80601f01602080910402602001604051908101604052809291908181526020018280546110dc906138ba565b80156111295780601f106110fe57610100808354040283529160200191611129565b820191906000526020600020905b81548152906001019060200180831161110c57829003601f168201915b5050505050905090565b6060600061114033610f57565b905060008167ffffffffffffffff81111561115e5761115d6132bb565b5b60405190808252806020026020018201604052801561119757816020015b611184612f48565b81526020019060019003908161117c5790505b50905060005b8281101561128e5760006111b13383610a5d565b90506000600d600083815260200190815260200160002090508060405180608001604052908160008201548152602001600182015481526020016002820160009054906101000a900473ffffffffffffffffffffffffffffffffffffffff1673ffffffffffffffffffffffffffffffffffffffff1673ffffffffffffffffffffffffffffffffffffffff1681526020016002820160149054906101000a900460ff16151515158152505084848151811061126e5761126d613c38565b5b60200260200101819052505050808061128690613d36565b91505061119d565b50809250505090565b6112a96112a261190c565b8383611f46565b5050565b6112be6112b861190c565b836119cd565b6112fd576040517f08c379a00000000000000000000000000000000000000000000000000000000081526004016112f490613a81565b60405180910390fd5b611309848484846120b2565b50505050565b600061131a83610c8a565b1561135a576040517f08c379a000000000000000000000000000000000000000000000000000000000815260040161135190613ec8565b60405180910390fd5b600854341461139e576040517f08c379a000000000000000000000000000000000000000000000000000000000815260040161139590613f5a565b60405180910390fd5b6113a8600a61210e565b6113b2600961210e565b60006113be600a611df4565b90506113ca3382612124565b6113d48185612142565b6113de81846121af565b6001600c856040516113f09190613c21565b908152602001604051809103902060006101000a81548160ff0219169083151502179055508091505092915050565b60085481565b6060611430826118c1565b6000600660008481526020019081526020016000208054611450906138ba565b80601f016020809104026020016040519081016040528092919081815260200182805461147c906138ba565b80156114c95780601f1061149e576101008083540402835291602001916114c9565b820191906000526020600020905b8154815290600101906020018083116114ac57829003601f168201915b5050505050905060006114da6122ff565b905060008151036114ef578192505050611532565b60008251111561152457808260405160200161150c929190613f7a565b60405160208183030381529060405292505050611532565b61152d84612316565b925050505b919050565b60006115436009611df4565b905090565b3373ffffffffffffffffffffffffffffffffffffffff1661156883610d37565b73ffffffffffffffffffffffffffffffffffffffff16146115be576040517f08c379a00000000000000000000000000000000000000000000000000000000081526004016115b590613fea565b60405180910390fd5b60001515600d600084815260200190815260200160002060020160149054906101000a900460ff16151514611628576040517f08c379a000000000000000000000000000000000000000000000000000000000815260040161161f90614056565b60405180910390fd5b600854341461163657600080fd5b6001600d600084815260200190815260200160002060020160146101000a81548160ff02191690831515021790555080600d60008481526020019081526020016000206001018190555061168a600961210e565b5050565b611696612f48565b600d600083815260200190815260200160002060405180608001604052908160008201548152602001600182015481526020016002820160009054906101000a900473ffffffffffffffffffffffffffffffffffffffff1673ffffffffffffffffffffffffffffffffffffffff1673ffffffffffffffffffffffffffffffffffffffff1681526020016002820160149054906101000a900460ff1615151515815250509050919050565b6000600560008473ffffffffffffffffffffffffffffffffffffffff1673ffffffffffffffffffffffffffffffffffffffff16815260200190815260200160002060008373ffffffffffffffffffffffffffffffffffffffff1673ffffffffffffffffffffffffffffffffffffffff16815260200190815260200160002060009054906101000a900460ff16905092915050565b6117dc611e02565b600073ffffffffffffffffffffffffffffffffffffffff168173ffffffffffffffffffffffffffffffffffffffff160361184b576040517f08c379a0000000000000000000000000000000000000000000000000000000008152600401611842906140e8565b60405180910390fd5b61185481611e80565b50565b60007f01ffc9a7000000000000000000000000000000000000000000000000000000007bffffffffffffffffffffffffffffffffffffffffffffffffffffffff1916827bffffffffffffffffffffffffffffffffffffffffffffffffffffffff1916149050919050565b6118ca8161237e565b611909576040517f08c379a000000000000000000000000000000000000000000000000000000000815260040161190090613cb3565b60405180910390fd5b50565b600033905090565b816004600083815260200190815260200160002060006101000a81548173ffffffffffffffffffffffffffffffffffffffff021916908373ffffffffffffffffffffffffffffffffffffffff160217905550808273ffffffffffffffffffffffffffffffffffffffff1661198783610d37565b73ffffffffffffffffffffffffffffffffffffffff167f8c5be1e5ebec7d5bd14f71427d1e84f3dd0314c0f7b2291e5b200ac8c7c3b92560405160405180910390a45050565b6000806119d983610d37565b90508073ffffffffffffffffffffffffffffffffffffffff168473ffffffffffffffffffffffffffffffffffffffff161480611a1b5750611a1a8185611740565b5b80611a5957508373ffffffffffffffffffffffffffffffffffffffff16611a4184610893565b73ffffffffffffffffffffffffffffffffffffffff16145b91505092915050565b8273ffffffffffffffffffffffffffffffffffffffff16611a8282610d37565b73ffffffffffffffffffffffffffffffffffffffff1614611ad8576040517f08c379a0000000000000000000000000000000000000000000000000000000008152600401611acf9061417a565b60405180910390fd5b600073ffffffffffffffffffffffffffffffffffffffff168273ffffffffffffffffffffffffffffffffffffffff1603611b47576040517f08c379a0000000000000000000000000000000000000000000000000000000008152600401611b3e9061420c565b60405180910390fd5b611b5483838360016123bf565b8273ffffffffffffffffffffffffffffffffffffffff16611b7482610d37565b73ffffffffffffffffffffffffffffffffffffffff1614611bca576040517f08c379a0000000000000000000000000000000000000000000000000000000008152600401611bc19061417a565b60405180910390fd5b6004600082815260200190815260200160002060006101000a81549073ffffffffffffffffffffffffffffffffffffffff02191690556001600360008573ffffffffffffffffffffffffffffffffffffffff1673ffffffffffffffffffffffffffffffffffffffff168152602001908152602001600020600082825403925050819055506001600360008473ffffffffffffffffffffffffffffffffffffffff1673ffffffffffffffffffffffffffffffffffffffff16815260200190815260200160002060008282540192505081905550816002600083815260200190815260200160002060006101000a81548173ffffffffffffffffffffffffffffffffffffffff021916908373ffffffffffffffffffffffffffffffffffffffff160217905550808273ffffffffffffffffffffffffffffffffffffffff168473ffffffffffffffffffffffffffffffffffffffff167fddf252ad1be2c89b69c2b068fc378daa952ba7f163c4a11628f55a4df523b3ef60405160405180910390a4611d5683838360016124d3565b505050565b60008160000154905060008111611da7576040517f08c379a0000000000000000000000000000000000000000000000000000000008152600401611d9e90614278565b60405180910390fd5b6001810382600001819055505050565b60006002600083815260200190815260200160002060009054906101000a900473ffffffffffffffffffffffffffffffffffffffff169050919050565b600081600001549050919050565b611e0a61190c565b73ffffffffffffffffffffffffffffffffffffffff16611e28611077565b73ffffffffffffffffffffffffffffffffffffffff1614611e7e576040517f08c379a0000000000000000000000000000000000000000000000000000000008152600401611e75906142e4565b60405180910390fd5b565b6000600760009054906101000a900473ffffffffffffffffffffffffffffffffffffffff16905081600760006101000a81548173ffffffffffffffffffffffffffffffffffffffff021916908373ffffffffffffffffffffffffffffffffffffffff1602179055508173ffffffffffffffffffffffffffffffffffffffff168173ffffffffffffffffffffffffffffffffffffffff167f8be0079c531659141344cd1fd0a4f28419497f9722a3daafe3b4186f6b6457e060405160405180910390a35050565b8173ffffffffffffffffffffffffffffffffffffffff168373ffffffffffffffffffffffffffffffffffffffff1603611fb4576040517f08c379a0000000000000000000000000000000000000000000000000000000008152600401611fab90614350565b60405180910390fd5b80600560008573ffffffffffffffffffffffffffffffffffffffff1673ffffffffffffffffffffffffffffffffffffffff16815260200190815260200160002060008473ffffffffffffffffffffffffffffffffffffffff1673ffffffffffffffffffffffffffffffffffffffff16815260200190815260200160002060006101000a81548160ff0219169083151502179055508173ffffffffffffffffffffffffffffffffffffffff168373ffffffffffffffffffffffffffffffffffffffff167f17307eab39ab6107e8899845ad3d59bd9653f200f220920489ca2b5937696c31836040516120a5919061303c565b60405180910390a3505050565b6120bd848484611a62565b6120c9848484846124d9565b612108576040517f08c379a00000000000000000000000000000000000000000000000000000000081526004016120ff906143e2565b60405180910390fd5b50505050565b6001816000016000828254019250508190555050565b61213e828260405180602001604052806000815250612660565b5050565b61214b8261237e565b61218a576040517f08c379a000000000000000000000000000000000000000000000000000000000815260040161218190614474565b60405180910390fd5b806006600084815260200190815260200160002090816121aa9190614640565b505050565b600081116121f2576040517f08c379a00000000000000000000000000000000000000000000000000000000081526004016121e990613e5c565b60405180910390fd5b60405180608001604052808381526020018281526020013373ffffffffffffffffffffffffffffffffffffffff16815260200160011515815250600d6000848152602001908152602001600020600082015181600001556020820151816001015560408201518160020160006101000a81548173ffffffffffffffffffffffffffffffffffffffff021916908373ffffffffffffffffffffffffffffffffffffffff16021790555060608201518160020160146101000a81548160ff0219169083151502179055509050507f32bc23dfea60ef769b55dcc0abf51600040012f4510f5606ac14b3ac950625db82823360016040516122f39493929190614712565b60405180910390a15050565b606060405180602001604052806000815250905090565b6060612321826118c1565b600061232b6122ff565b9050600081511161234b5760405180602001604052806000815250612376565b80612355846126bb565b604051602001612366929190613f7a565b6040516020818303038152906040525b915050919050565b60008073ffffffffffffffffffffffffffffffffffffffff166123a083611db7565b73ffffffffffffffffffffffffffffffffffffffff1614159050919050565b6123cb84848484612789565b600073ffffffffffffffffffffffffffffffffffffffff168473ffffffffffffffffffffffffffffffffffffffff160361240d57612408826128af565b61244c565b8273ffffffffffffffffffffffffffffffffffffffff168473ffffffffffffffffffffffffffffffffffffffff161461244b5761244a84836128f8565b5b5b600073ffffffffffffffffffffffffffffffffffffffff168373ffffffffffffffffffffffffffffffffffffffff160361248e5761248982612a65565b6124cd565b8373ffffffffffffffffffffffffffffffffffffffff168373ffffffffffffffffffffffffffffffffffffffff16146124cc576124cb8383612b36565b5b5b50505050565b50505050565b60006124fa8473ffffffffffffffffffffffffffffffffffffffff16612bb5565b15612653578373ffffffffffffffffffffffffffffffffffffffff1663150b7a0261252361190c565b8786866040518563ffffffff1660e01b815260040161254594939291906147ac565b6020604051808303816000875af192505050801561258157506040513d601f19601f8201168201806040525081019061257e919061480d565b60015b612603573d80600081146125b1576040519150601f19603f3d011682016040523d82523d6000602084013e6125b6565b606091505b5060008151036125fb576040517f08c379a00000000000000000000000000000000000000000000000000000000081526004016125f2906143e2565b60405180910390fd5b805181602001fd5b63150b7a0260e01b7bffffffffffffffffffffffffffffffffffffffffffffffffffffffff1916817bffffffffffffffffffffffffffffffffffffffffffffffffffffffff191614915050612658565b600190505b949350505050565b61266a8383612bd8565b61267760008484846124d9565b6126b6576040517f08c379a00000000000000000000000000000000000000000000000000000000081526004016126ad906143e2565b60405180910390fd5b505050565b6060600060016126ca84612df5565b01905060008167ffffffffffffffff8111156126e9576126e86132bb565b5b6040519080825280601f01601f19166020018201604052801561271b5781602001600182028036833780820191505090505b509050600082602001820190505b60011561277e578080600190039150507f3031323334353637383961626364656600000000000000000000000000000000600a86061a8153600a85816127725761277161483a565b5b04945060008503612729575b819350505050919050565b60018111156128a957600073ffffffffffffffffffffffffffffffffffffffff168473ffffffffffffffffffffffffffffffffffffffff161461281d5780600360008673ffffffffffffffffffffffffffffffffffffffff1673ffffffffffffffffffffffffffffffffffffffff16815260200190815260200160002060008282546128159190614869565b925050819055505b600073ffffffffffffffffffffffffffffffffffffffff168373ffffffffffffffffffffffffffffffffffffffff16146128a85780600360008573ffffffffffffffffffffffffffffffffffffffff1673ffffffffffffffffffffffffffffffffffffffff16815260200190815260200160002060008282546128a09190613d02565b925050819055505b5b50505050565b600b80549050600e600083815260200190815260200160002081905550600b81908060018154018082558091505060019003906000526020600020016000909190919091505550565b6000600161290584610f57565b61290f9190614869565b90506000601060008481526020019081526020016000205490508181146129f4576000600f60008673ffffffffffffffffffffffffffffffffffffffff1673ffffffffffffffffffffffffffffffffffffffff168152602001908152602001600020600084815260200190815260200160002054905080600f60008773ffffffffffffffffffffffffffffffffffffffff1673ffffffffffffffffffffffffffffffffffffffff168152602001908152602001600020600084815260200190815260200160002081905550816010600083815260200190815260200160002081905550505b6010600084815260200190815260200160002060009055600f60008573ffffffffffffffffffffffffffffffffffffffff1673ffffffffffffffffffffffffffffffffffffffff16815260200190815260200160002060008381526020019081526020016000206000905550505050565b60006001600b80549050612a799190614869565b90506000600e60008481526020019081526020016000205490506000600b8381548110612aa957612aa8613c38565b5b9060005260206000200154905080600b8381548110612acb57612aca613c38565b5b906000526020600020018190555081600e600083815260200190815260200160002081905550600e600085815260200190815260200160002060009055600b805480612b1a57612b1961489d565b5b6001900381819060005260206000200160009055905550505050565b6000612b4183610f57565b905081600f60008573ffffffffffffffffffffffffffffffffffffffff1673ffffffffffffffffffffffffffffffffffffffff168152602001908152602001600020600083815260200190815260200160002081905550806010600084815260200190815260200160002081905550505050565b6000808273ffffffffffffffffffffffffffffffffffffffff163b119050919050565b600073ffffffffffffffffffffffffffffffffffffffff168273ffffffffffffffffffffffffffffffffffffffff1603612c47576040517f08c379a0000000000000000000000000000000000000000000000000000000008152600401612c3e90614918565b60405180910390fd5b612c508161237e565b15612c90576040517f08c379a0000000000000000000000000000000000000000000000000000000008152600401612c8790614984565b60405180910390fd5b612c9e6000838360016123bf565b612ca78161237e565b15612ce7576040517f08c379a0000000000000000000000000000000000000000000000000000000008152600401612cde90614984565b60405180910390fd5b6001600360008473ffffffffffffffffffffffffffffffffffffffff1673ffffffffffffffffffffffffffffffffffffffff16815260200190815260200160002060008282540192505081905550816002600083815260200190815260200160002060006101000a81548173ffffffffffffffffffffffffffffffffffffffff021916908373ffffffffffffffffffffffffffffffffffffffff160217905550808273ffffffffffffffffffffffffffffffffffffffff16600073ffffffffffffffffffffffffffffffffffffffff167fddf252ad1be2c89b69c2b068fc378daa952ba7f163c4a11628f55a4df523b3ef60405160405180910390a4612df16000838360016124d3565b5050565b600080600090507a184f03e93ff9f4daa797ed6e38ed64bf6a1f0100000000000000008310612e53577a184f03e93ff9f4daa797ed6e38ed64bf6a1f0100000000000000008381612e4957612e4861483a565b5b0492506040810190505b6d04ee2d6d415b85acef81000000008310612e90576d04ee2d6d415b85acef81000000008381612e8657612e8561483a565b5b0492506020810190505b662386f26fc100008310612ebf57662386f26fc100008381612eb557612eb461483a565b5b0492506010810190505b6305f5e1008310612ee8576305f5e1008381612ede57612edd61483a565b5b0492506008810190505b6127108310612f0d576127108381612f0357612f0261483a565b5b0492506004810190505b60648310612f305760648381612f2657612f2561483a565b5b0492506002810190505b600a8310612f3f576001810190505b80915050919050565b60405180608001604052806000815260200160008152602001600073ffffffffffffffffffffffffffffffffffffffff1681526020016000151581525090565b6000604051905090565b600080fd5b600080fd5b60007fffffffff0000000000000000000000000000000000000000000000000000000082169050919050565b612fd181612f9c565b8114612fdc57600080fd5b50565b600081359050612fee81612fc8565b92915050565b60006020828403121561300a57613009612f92565b5b600061301884828501612fdf565b91505092915050565b60008115159050919050565b61303681613021565b82525050565b6000602082019050613051600083018461302d565b92915050565b600081519050919050565b600082825260208201905092915050565b60005b83811015613091578082015181840152602081019050613076565b60008484015250505050565b6000601f19601f8301169050919050565b60006130b982613057565b6130c38185613062565b93506130d3818560208601613073565b6130dc8161309d565b840191505092915050565b6000602082019050818103600083015261310181846130ae565b905092915050565b6000819050919050565b61311c81613109565b811461312757600080fd5b50565b60008135905061313981613113565b92915050565b60006020828403121561315557613154612f92565b5b60006131638482850161312a565b91505092915050565b600073ffffffffffffffffffffffffffffffffffffffff82169050919050565b60006131978261316c565b9050919050565b6131a78161318c565b82525050565b60006020820190506131c2600083018461319e565b92915050565b6131d18161318c565b81146131dc57600080fd5b50565b6000813590506131ee816131c8565b92915050565b6000806040838503121561320b5761320a612f92565b5b6000613219858286016131df565b925050602061322a8582860161312a565b9150509250929050565b61323d81613109565b82525050565b60006020820190506132586000830184613234565b92915050565b60008060006060848603121561327757613276612f92565b5b6000613285868287016131df565b9350506020613296868287016131df565b92505060406132a78682870161312a565b9150509250925092565b600080fd5b600080fd5b7f4e487b7100000000000000000000000000000000000000000000000000000000600052604160045260246000fd5b6132f38261309d565b810181811067ffffffffffffffff82111715613312576133116132bb565b5b80604052505050565b6000613325612f88565b905061333182826132ea565b919050565b600067ffffffffffffffff821115613351576133506132bb565b5b61335a8261309d565b9050602081019050919050565b82818337600083830152505050565b600061338961338484613336565b61331b565b9050828152602081018484840111156133a5576133a46132b6565b5b6133b0848285613367565b509392505050565b600082601f8301126133cd576133cc6132b1565b5b81356133dd848260208601613376565b91505092915050565b6000602082840312156133fc576133fb612f92565b5b600082013567ffffffffffffffff81111561341a57613419612f97565b5b613426848285016133b8565b91505092915050565b600081519050919050565b600082825260208201905092915050565b6000819050602082019050919050565b61346481613109565b82525050565b6134738161318c565b82525050565b61348281613021565b82525050565b60808201600082015161349e600085018261345b565b5060208201516134b1602085018261345b565b5060408201516134c4604085018261346a565b5060608201516134d76060850182613479565b50505050565b60006134e98383613488565b60808301905092915050565b6000602082019050919050565b600061350d8261342f565b613517818561343a565b93506135228361344b565b8060005b8381101561355357815161353a88826134dd565b9750613545836134f5565b925050600181019050613526565b5085935050505092915050565b6000602082019050818103600083015261357a8184613502565b905092915050565b60006020828403121561359857613597612f92565b5b60006135a6848285016131df565b91505092915050565b6135b881613021565b81146135c357600080fd5b50565b6000813590506135d5816135af565b92915050565b600080604083850312156135f2576135f1612f92565b5b6000613600858286016131df565b9250506020613611858286016135c6565b9150509250929050565b600067ffffffffffffffff821115613636576136356132bb565b5b61363f8261309d565b9050602081019050919050565b600061365f61365a8461361b565b61331b565b90508281526020810184848401111561367b5761367a6132b6565b5b613686848285613367565b509392505050565b600082601f8301126136a3576136a26132b1565b5b81356136b384826020860161364c565b91505092915050565b600080600080608085870312156136d6576136d5612f92565b5b60006136e4878288016131df565b94505060206136f5878288016131df565b93505060406137068782880161312a565b925050606085013567ffffffffffffffff81111561372757613726612f97565b5b6137338782880161368e565b91505092959194509250565b6000806040838503121561375657613755612f92565b5b600083013567ffffffffffffffff81111561377457613773612f97565b5b613780858286016133b8565b92505060206137918582860161312a565b9150509250929050565b600080604083850312156137b2576137b1612f92565b5b60006137c08582860161312a565b92505060206137d18582860161312a565b9150509250929050565b6080820160008201516137f1600085018261345b565b506020820151613804602085018261345b565b506040820151613817604085018261346a565b50606082015161382a6060850182613479565b50505050565b600060808201905061384560008301846137db565b92915050565b6000806040838503121561386257613861612f92565b5b6000613870858286016131df565b9250506020613881858286016131df565b9150509250929050565b7f4e487b7100000000000000000000000000000000000000000000000000000000600052602260045260246000fd5b600060028204905060018216806138d257607f821691505b6020821081036138e5576138e461388b565b5b50919050565b7f4552433732313a20617070726f76616c20746f2063757272656e74206f776e6560008201527f7200000000000000000000000000000000000000000000000000000000000000602082015250565b6000613947602183613062565b9150613952826138eb565b604082019050919050565b600060208201905081810360008301526139768161393a565b9050919050565b7f4552433732313a20617070726f76652063616c6c6572206973206e6f7420746f60008201527f6b656e206f776e6572206f7220617070726f76656420666f7220616c6c000000602082015250565b60006139d9603d83613062565b91506139e48261397d565b604082019050919050565b60006020820190508181036000830152613a08816139cc565b9050919050565b7f4552433732313a2063616c6c6572206973206e6f7420746f6b656e206f776e6560008201527f72206f7220617070726f76656400000000000000000000000000000000000000602082015250565b6000613a6b602d83613062565b9150613a7682613a0f565b604082019050919050565b60006020820190508181036000830152613a9a81613a5e565b9050919050565b7f496e646578206f7574206f6620626f756e647300000000000000000000000000600082015250565b6000613ad7601383613062565b9150613ae282613aa1565b602082019050919050565b60006020820190508181036000830152613b0681613aca565b9050919050565b7f596f75206f776e20746869732050432070617274000000000000000000000000600082015250565b6000613b43601483613062565b9150613b4e82613b0d565b602082019050919050565b60006020820190508181036000830152613b7281613b36565b9050919050565b7f506c65617365207375626d6974207468652061736b696e672070726963650000600082015250565b6000613baf601e83613062565b9150613bba82613b79565b602082019050919050565b60006020820190508181036000830152613bde81613ba2565b9050919050565b600081905092915050565b6000613bfb82613057565b613c058185613be5565b9350613c15818560208601613073565b80840191505092915050565b6000613c2d8284613bf0565b915081905092915050565b7f4e487b7100000000000000000000000000000000000000000000000000000000600052603260045260246000fd5b7f4552433732313a20696e76616c696420746f6b656e2049440000000000000000600082015250565b6000613c9d601883613062565b9150613ca882613c67565b602082019050919050565b60006020820190508181036000830152613ccc81613c90565b9050919050565b7f4e487b7100000000000000000000000000000000000000000000000000000000600052601160045260246000fd5b6000613d0d82613109565b9150613d1883613109565b9250828201905080821115613d3057613d2f613cd3565b5b92915050565b6000613d4182613109565b91507fffffffffffffffffffffffffffffffffffffffffffffffffffffffffffffffff8203613d7357613d72613cd3565b5b600182019050919050565b7f4552433732313a2061646472657373207a65726f206973206e6f74206120766160008201527f6c6964206f776e65720000000000000000000000000000000000000000000000602082015250565b6000613dda602983613062565b9150613de582613d7e565b604082019050919050565b60006020820190508181036000830152613e0981613dcd565b9050919050565b7f5072696365206d757374206265206174206c6561737420312077656900000000600082015250565b6000613e46601c83613062565b9150613e5182613e10565b602082019050919050565b60006020820190508181036000830152613e7581613e39565b9050919050565b7f546f6b656e2055524920616c7265616479206578697374730000000000000000600082015250565b6000613eb2601883613062565b9150613ebd82613e7c565b602082019050919050565b60006020820190508181036000830152613ee181613ea5565b9050919050565b7f5072696365206d75737420626520657175616c20746f206c697374696e67207060008201527f7269636500000000000000000000000000000000000000000000000000000000602082015250565b6000613f44602483613062565b9150613f4f82613ee8565b604082019050919050565b60006020820190508181036000830152613f7381613f37565b9050919050565b6000613f868285613bf0565b9150613f928284613bf0565b91508190509392505050565b7f596f7520617265206e6f74206f776e6572206f662074686973206974656d0000600082015250565b6000613fd4601e83613062565b9150613fdf82613f9e565b602082019050919050565b6000602082019050818103600083015261400381613fc7565b9050919050565b7f4974656d20697320616c7265616479206f6e2073616c65000000000000000000600082015250565b6000614040601783613062565b915061404b8261400a565b602082019050919050565b6000602082019050818103600083015261406f81614033565b9050919050565b7f4f776e61626c653a206e6577206f776e657220697320746865207a65726f206160008201527f6464726573730000000000000000000000000000000000000000000000000000602082015250565b60006140d2602683613062565b91506140dd82614076565b604082019050919050565b60006020820190508181036000830152614101816140c5565b9050919050565b7f4552433732313a207472616e736665722066726f6d20696e636f72726563742060008201527f6f776e6572000000000000000000000000000000000000000000000000000000602082015250565b6000614164602583613062565b915061416f82614108565b604082019050919050565b6000602082019050818103600083015261419381614157565b9050919050565b7f4552433732313a207472616e7366657220746f20746865207a65726f2061646460008201527f7265737300000000000000000000000000000000000000000000000000000000602082015250565b60006141f6602483613062565b91506142018261419a565b604082019050919050565b60006020820190508181036000830152614225816141e9565b9050919050565b7f436f756e7465723a2064656372656d656e74206f766572666c6f770000000000600082015250565b6000614262601b83613062565b915061426d8261422c565b602082019050919050565b6000602082019050818103600083015261429181614255565b9050919050565b7f4f776e61626c653a2063616c6c6572206973206e6f7420746865206f776e6572600082015250565b60006142ce602083613062565b91506142d982614298565b602082019050919050565b600060208201905081810360008301526142fd816142c1565b9050919050565b7f4552433732313a20617070726f766520746f2063616c6c657200000000000000600082015250565b600061433a601983613062565b915061434582614304565b602082019050919050565b600060208201905081810360008301526143698161432d565b9050919050565b7f4552433732313a207472616e7366657220746f206e6f6e20455243373231526560008201527f63656976657220696d706c656d656e7465720000000000000000000000000000602082015250565b60006143cc603283613062565b91506143d782614370565b604082019050919050565b600060208201905081810360008301526143fb816143bf565b9050919050565b7f45524337323155524953746f726167653a2055524920736574206f66206e6f6e60008201527f6578697374656e7420746f6b656e000000000000000000000000000000000000602082015250565b600061445e602e83613062565b915061446982614402565b604082019050919050565b6000602082019050818103600083015261448d81614451565b9050919050565b60008190508160005260206000209050919050565b60006020601f8301049050919050565b600082821b905092915050565b6000600883026144f67fffffffffffffffffffffffffffffffffffffffffffffffffffffffffffffffff826144b9565b61450086836144b9565b95508019841693508086168417925050509392505050565b6000819050919050565b600061453d61453861453384613109565b614518565b613109565b9050919050565b6000819050919050565b61455783614522565b61456b61456382614544565b8484546144c6565b825550505050565b600090565b614580614573565b61458b81848461454e565b505050565b5b818110156145af576145a4600082614578565b600181019050614591565b5050565b601f8211156145f4576145c581614494565b6145ce846144a9565b810160208510156145dd578190505b6145f16145e9856144a9565b830182614590565b50505b505050565b600082821c905092915050565b6000614617600019846008026145f9565b1980831691505092915050565b60006146308383614606565b9150826002028217905092915050565b61464982613057565b67ffffffffffffffff811115614662576146616132bb565b5b61466c82546138ba565b6146778282856145b3565b600060209050601f8311600181146146aa5760008415614698578287015190505b6146a28582614624565b86555061470a565b601f1984166146b886614494565b60005b828110156146e0578489015182556001820191506020850194506020810190506146bb565b868310156146fd57848901516146f9601f891682614606565b8355505b6001600288020188555050505b505050505050565b60006080820190506147276000830187613234565b6147346020830186613234565b614741604083018561319e565b61474e606083018461302d565b95945050505050565b600081519050919050565b600082825260208201905092915050565b600061477e82614757565b6147888185614762565b9350614798818560208601613073565b6147a18161309d565b840191505092915050565b60006080820190506147c1600083018761319e565b6147ce602083018661319e565b6147db6040830185613234565b81810360608301526147ed8184614773565b905095945050505050565b60008151905061480781612fc8565b92915050565b60006020828403121561482357614822612f92565b5b6000614831848285016147f8565b91505092915050565b7f4e487b7100000000000000000000000000000000000000000000000000000000600052601260045260246000fd5b600061487482613109565b915061487f83613109565b925082820390508181111561489757614896613cd3565b5b92915050565b7f4e487b7100000000000000000000000000000000000000000000000000000000600052603160045260246000fd5b7f4552433732313a206d696e7420746f20746865207a65726f2061646472657373600082015250565b6000614902602083613062565b915061490d826148cc565b602082019050919050565b60006020820190508181036000830152614931816148f5565b9050919050565b7f4552433732313a20746f6b656e20616c7265616479206d696e74656400000000600082015250565b600061496e601c83613062565b915061497982614938565b602082019050919050565b6000602082019050818103600083015261499d81614961565b905091905056fea2646970667358221220f051f54eea5961d162498bbec0c6338fde52d3460d175f6c78d97bc750f67c2564736f6c63430008110033",
  "immutableReferences": {},
  "source": "pragma solidity >=0.4.22 <0.9.0;\r\nimport \"@openzeppelin/contracts/token/ERC721/extensions/ERC721URIStorage.sol\";\r\nimport \"@openzeppelin/contracts/utils/Counters.sol\";\r\nimport \"@openzeppelin/contracts/access/Ownable.sol\";\r\n\r\ncontract PcMarket is ERC721URIStorage, Ownable {\r\n    using Counters for Counters.Counter; //counter for counting\r\n\r\n    // Creating new PC Item\r\n    struct PcItem {\r\n        uint256 tokenId;\r\n        uint256 price;\r\n        address creator;\r\n        bool isListed;\r\n    }\r\n\r\n    uint256 public listingPrice = 0.025 ether;\r\n\r\n    Counters.Counter private _listedItems; // starts witch 0 and can be incremented or decremented\r\n    Counters.Counter private _tokenIds; // unique ids\r\n\r\n    uint256[] private _allPcs; //array to keep all items\r\n\r\n    mapping(string => bool) private _usedTokenURIs; //mapping between URIs and true value\r\n    mapping(uint256 => PcItem) private _idToPcItem; //mapping between id and Pc Item\r\n    mapping(uint256 => uint256) private _idToPcIndex; //mapping between id and pc index\r\n\r\n    mapping(address => mapping(uint256 => uint256)) private _ownedTokens; //mapping for owned tokens by address\r\n    mapping(uint256 => uint256) private _idToOwnedIndex; //mapping for owned tokens by address\r\n\r\n    // Event for PC Item creation\r\n    event PcItemCreated(\r\n        uint256 tokenId,\r\n        uint256 price,\r\n        address creator,\r\n        bool isListed\r\n    );\r\n\r\n    constructor() ERC721(\"PcMarket\", \"CMPT\") {}\r\n\r\n    function setListingPrice(uint256 newPrice) external onlyOwner {\r\n        require(newPrice > 0, \"Price must be at least 1 wei\");\r\n        listingPrice = newPrice;\r\n    }\r\n\r\n    // Get Pc item function\r\n    function getPcItem(uint256 tokenId) public view returns (PcItem memory) {\r\n        return _idToPcItem[tokenId];\r\n    }\r\n\r\n    // Returns number of created items\r\n    function listedItemsCount() public view returns (uint256) {\r\n        return _listedItems.current();\r\n    }\r\n\r\n    //check if token URI exists (if token mapping is true)\r\n    function tokenURIExists(string memory tokenURI) public view returns (bool) {\r\n        return _usedTokenURIs[tokenURI] == true;\r\n    }\r\n\r\n    // Length of PCs\r\n    function totalSupply() public view returns (uint256) {\r\n        return _allPcs.length;\r\n    }\r\n\r\n    // Get PCs by their index\r\n    function tokenByIndex(uint256 index) public view returns (uint256) {\r\n        require(index < totalSupply(), \"Index out of bounds\");\r\n        return _allPcs[index];\r\n    }\r\n\r\n    // Get Owned PCs by their index\r\n    function tokenOfOwnerByIndex(address owner, uint256 index)\r\n        public\r\n        view\r\n        returns (uint256)\r\n    {\r\n        require(index < ERC721.balanceOf(owner), \"Index out of bounds\");\r\n        return _ownedTokens[owner][index];\r\n    }\r\n\r\n    // Function to add all Items on sale which have Listing set to true\r\n    function getAllPcsOnSale() public view returns (PcItem[] memory) {\r\n        uint256 allPcsCounts = totalSupply(); //Get total components\r\n        uint256 currentIndex = 0;\r\n        PcItem[] memory items = new PcItem[](_listedItems.current()); //storing listed components into empty array\r\n\r\n        //iterates the array of all items\r\n        for (uint256 i = 0; i < allPcsCounts; i++) {\r\n            uint256 tokenId = tokenByIndex(i);\r\n            PcItem storage item = _idToPcItem[tokenId];\r\n\r\n            if (item.isListed == true) {\r\n                //If listed is true, add to array\r\n                items[currentIndex] = item;\r\n                currentIndex += 1;\r\n            }\r\n        }\r\n\r\n        return items;\r\n    }\r\n\r\n    // Get PC items that are owned\r\n    function getOwnedPcs() public view returns (PcItem[] memory) {\r\n        uint256 ownedItemsCount = ERC721.balanceOf(msg.sender); // counts items of specific account\r\n        PcItem[] memory items = new PcItem[](ownedItemsCount); // adds items to array\r\n\r\n        //for loop for 0 until the number of items the owner owns\r\n        for (uint256 i = 0; i < ownedItemsCount; i++) {\r\n            uint256 tokenId = tokenOfOwnerByIndex(msg.sender, i); //check if there is token at the i (index)\r\n            PcItem storage item = _idToPcItem[tokenId]; //if there is id we map it to item\r\n            items[i] = item; //store item to array and return it\r\n        }\r\n\r\n        return items;\r\n    }\r\n\r\n    //making new sale, TokenURI, is link to metadata\r\n    function mintToken(string memory tokenURI, uint256 price)\r\n        public\r\n        payable\r\n        returns (uint256)\r\n    {\r\n        require(!tokenURIExists(tokenURI), \"Token URI already exists\"); //checks if token exists, if it doesn't continue with creating one\r\n        require(\r\n            msg.value == listingPrice,\r\n            \"Price must be equal to listing price\"\r\n        ); // price must be equal to listing price of 0.025 ether\r\n\r\n        _tokenIds.increment();\r\n        _listedItems.increment();\r\n\r\n        uint256 newTokenId = _tokenIds.current(); //get token id value\r\n\r\n        //ERC721 function to provide who is creating token (address) and token id (from increment)\r\n        _safeMint(msg.sender, newTokenId);\r\n        _setTokenURI(newTokenId, tokenURI);\r\n        _createPcItem(newTokenId, price);\r\n        _usedTokenURIs[tokenURI] = true;\r\n\r\n        return newTokenId;\r\n    }\r\n\r\n    function buyPc(uint256 tokenId) public payable {\r\n        uint256 price = _idToPcItem[tokenId].price;\r\n        address owner = ERC721.ownerOf(tokenId); // Owner of is a function that is part of ERC721\r\n\r\n        require(msg.sender != owner, \"You own this PC part\"); // Check if owner of component is defferent from seller\r\n        require(msg.value == price, \"Please submit the asking price\"); // Check if price is correct\r\n\r\n        _idToPcItem[tokenId].isListed = false; //Make Item unlisted\r\n        _listedItems.decrement(); // Decrement number of listed items\r\n\r\n        _transfer(owner, msg.sender, tokenId); // Transwer ownershit to msg.sender (transfer is ERC721 function)\r\n        payable(owner).transfer(msg.value);\r\n    }\r\n\r\n    //Add item to sale\r\n    function placePcOnSale(uint256 tokenId, uint256 newPrice) public payable {\r\n        // check if you own this item\r\n        require(\r\n            ERC721.ownerOf(tokenId) == msg.sender,\r\n            \"You are not owner of this item\"\r\n        );\r\n\r\n        // check if the item is on sale\r\n        require(\r\n            _idToPcItem[tokenId].isListed == false,\r\n            \"Item is already on sale\"\r\n        );\r\n        // check if the listing price is correct\r\n        require(msg.value == listingPrice);\r\n\r\n        _idToPcItem[tokenId].isListed = true; // set listing to true\r\n        _idToPcItem[tokenId].price = newPrice; // set new price\r\n        _listedItems.increment(); // increment listed items\r\n    }\r\n\r\n    // Function to create new PC item\r\n    function _createPcItem(uint256 tokenId, uint256 price) private {\r\n        require(price > 0, \"Price must be at least 1 wei\"); // Price needs to be above 0 to create item\r\n\r\n        _idToPcItem[tokenId] = PcItem(tokenId, price, msg.sender, true); //mapping new item\r\n\r\n        emit PcItemCreated(tokenId, price, msg.sender, true); //emitting new item\r\n    }\r\n\r\n    //Part of mint function from ERC721\r\n    function _beforeTokenTransfer(\r\n        address from,\r\n        address to,\r\n        uint256 tokenId,\r\n        uint256 batchSize\r\n    ) internal virtual override {\r\n        super._beforeTokenTransfer(from, to, tokenId, batchSize);\r\n\r\n        if (from == address(0)) {\r\n            _addTokenToAllTokensEnumeration(tokenId);\r\n        } else if (from != to) {\r\n            _removeTokenFromOwnerEnumeration(from, tokenId);\r\n        }\r\n\r\n        if (to == address(0)) {\r\n            _removeTokenFromAllTokensEnumeration(tokenId);\r\n        } else if (to != from) {\r\n            _addTokenToOwnerEnumeration(to, tokenId);\r\n        }\r\n    }\r\n\r\n    function _addTokenToAllTokensEnumeration(uint256 tokenId) private {\r\n        _idToPcIndex[tokenId] = _allPcs.length;\r\n        _allPcs.push(tokenId);\r\n    }\r\n\r\n    // Add token to address that owns it\r\n    function _addTokenToOwnerEnumeration(address to, uint256 tokenId) private {\r\n        uint256 length = ERC721.balanceOf(to); //Get number of tokens user already owns | ERC721 function\r\n\r\n        _ownedTokens[to][length] = tokenId; // mapping pointing to address, poiniting to length (owned pcs), mapping to Id of PC\r\n        _idToOwnedIndex[tokenId] = length; //mapping Id of Pc to length of owned pcs\r\n    }\r\n\r\n    //Remove token from owned enums\r\n    function _removeTokenFromOwnerEnumeration(address from, uint256 tokenId)\r\n        private\r\n    {\r\n        uint256 lastTokenIndex = ERC721.balanceOf(from) - 1; // Get number of tokens that user owns and decrement by 1\r\n        uint256 tokenIndex = _idToOwnedIndex[tokenId]; // mapping id to owned index\r\n\r\n        if (tokenIndex != lastTokenIndex) {\r\n            uint256 lastTokenId = _ownedTokens[from][lastTokenIndex]; //mapping of account address and the lost token in the array\r\n\r\n            _ownedTokens[from][tokenIndex] = lastTokenId; //remmapping token index to last token index\r\n            _idToOwnedIndex[lastTokenId] = tokenIndex; //remapping last token index to token index\r\n        }\r\n\r\n        delete _idToOwnedIndex[tokenId]; //delete token Id\r\n        delete _ownedTokens[from][lastTokenIndex]; //remove last token index from adress (decrement it)\r\n    }\r\n\r\n    // function to remove token from all enums (to destroy the token)\r\n    function _removeTokenFromAllTokensEnumeration(uint256 tokenId) private {\r\n        uint256 lastTokenIndex = _allPcs.length - 1; //get all PCs length and decrement it\r\n        uint256 tokenIndex = _idToPcIndex[tokenId]; //map id to index\r\n        uint256 lastTokenId = _allPcs[lastTokenIndex]; //accesing id of the last index in the array _allPcs\r\n\r\n        _allPcs[tokenIndex] = lastTokenId; //remapping of tokenIndex with tokenId\r\n        _idToPcIndex[lastTokenId] = tokenIndex; //remapping of last token id to token index\r\n\r\n        delete _idToPcIndex[tokenId]; //remove tokenId\r\n        _allPcs.pop(); //remove last item from array\r\n    }\r\n}\r\n",
  "sourcePath": "C:\\Users\\dina3\\Desktop\\blockchain-shop\\blockchain-shop\\contracts\\PcMarket.sol",
  "compiler": {
    "name": "solc",
    "version": "0.8.17+commit.8df45f5f.Emscripten.clang"
  },
  "schemaVersion": "3.4.11",
  "updatedAt": "2023-01-23T22:55:03.801Z",
  "networkType": "ethereum",
  "devdoc": {
    "kind": "dev",
    "methods": {
      "approve(address,uint256)": {
        "details": "See {IERC721-approve}."
      },
      "balanceOf(address)": {
        "details": "See {IERC721-balanceOf}."
      },
      "getApproved(uint256)": {
        "details": "See {IERC721-getApproved}."
      },
      "isApprovedForAll(address,address)": {
        "details": "See {IERC721-isApprovedForAll}."
      },
      "name()": {
        "details": "See {IERC721Metadata-name}."
      },
      "owner()": {
        "details": "Returns the address of the current owner."
      },
      "ownerOf(uint256)": {
        "details": "See {IERC721-ownerOf}."
      },
      "renounceOwnership()": {
        "details": "Leaves the contract without owner. It will not be possible to call `onlyOwner` functions anymore. Can only be called by the current owner. NOTE: Renouncing ownership will leave the contract without an owner, thereby removing any functionality that is only available to the owner."
      },
      "safeTransferFrom(address,address,uint256)": {
        "details": "See {IERC721-safeTransferFrom}."
      },
      "safeTransferFrom(address,address,uint256,bytes)": {
        "details": "See {IERC721-safeTransferFrom}."
      },
      "setApprovalForAll(address,bool)": {
        "details": "See {IERC721-setApprovalForAll}."
      },
      "supportsInterface(bytes4)": {
        "details": "See {IERC165-supportsInterface}."
      },
      "symbol()": {
        "details": "See {IERC721Metadata-symbol}."
      },
      "tokenURI(uint256)": {
        "details": "See {IERC721Metadata-tokenURI}."
      },
      "transferFrom(address,address,uint256)": {
        "details": "See {IERC721-transferFrom}."
      },
      "transferOwnership(address)": {
        "details": "Transfers ownership of the contract to a new account (`newOwner`). Can only be called by the current owner."
      }
    },
    "version": 1
  },
  "userdoc": {
    "kind": "user",
    "methods": {},
    "version": 1
  }
}